{
  "_format": "hh-sol-artifact-1",
  "contractName": "WavePortal",
  "sourceName": "contracts/WavePortal.sol",
  "abi": [
    {
      "inputs": [],
      "stateMutability": "nonpayable",
      "type": "constructor"
    },
    {
      "inputs": [],
      "name": "getTotalWaves",
      "outputs": [
        {
          "internalType": "uint256",
          "name": "",
          "type": "uint256"
        }
      ],
      "stateMutability": "view",
      "type": "function"
    },
    {
      "inputs": [],
      "name": "wave",
      "outputs": [],
      "stateMutability": "nonpayable",
      "type": "function"
    }
  ],
  "bytecode": "0x60806040526000805534801561001457600080fd5b5061005d6040518060400160405280601c81526020017f74686973206973207761766520706f7274616c20636f6e74726163740000000081525061006260201b6100851760201c565b6101e5565b6100fe816040516024016100769190610163565b6040516020818303038152906040527f41304fac000000000000000000000000000000000000000000000000000000007bffffffffffffffffffffffffffffffffffffffffffffffffffffffff19166020820180517bffffffffffffffffffffffffffffffffffffffffffffffffffffffff838183161783525050505061010160201b60201c565b50565b60008151905060006a636f6e736f6c652e6c6f679050602083016000808483855afa5050505050565b600061013582610185565b61013f8185610190565b935061014f8185602086016101a1565b610158816101d4565b840191505092915050565b6000602082019050818103600083015261017d818461012a565b905092915050565b600081519050919050565b600082825260208201905092915050565b60005b838110156101bf5780820151818401526020810190506101a4565b838111156101ce576000848401525b50505050565b6000601f19601f8301169050919050565b6102e4806101f46000396000f3fe608060405234801561001057600080fd5b50600436106100365760003560e01c80636fe15b441461003b5780639a2cdc0814610045575b600080fd5b610043610063565b005b61004d61007c565b60405161005a91906101b1565b60405180910390f35b60008081548092919061007590610225565b9190505550565b60008054905090565b61011b81604051602401610099919061018f565b6040516020818303038152906040527f41304fac000000000000000000000000000000000000000000000000000000007bffffffffffffffffffffffffffffffffffffffffffffffffffffffff19166020820180517bffffffffffffffffffffffffffffffffffffffffffffffffffffffff838183161783525050505061011e565b50565b60008151905060006a636f6e736f6c652e6c6f679050602083016000808483855afa5050505050565b6000610152826101cc565b61015c81856101d7565b935061016c8185602086016101f2565b6101758161029d565b840191505092915050565b610189816101e8565b82525050565b600060208201905081810360008301526101a98184610147565b905092915050565b60006020820190506101c66000830184610180565b92915050565b600081519050919050565b600082825260208201905092915050565b6000819050919050565b60005b838110156102105780820151818401526020810190506101f5565b8381111561021f576000848401525b50505050565b6000610230826101e8565b91507fffffffffffffffffffffffffffffffffffffffffffffffffffffffffffffffff8214156102635761026261026e565b5b600182019050919050565b7f4e487b7100000000000000000000000000000000000000000000000000000000600052601160045260246000fd5b6000601f19601f830116905091905056fea264697066735822122025a52945418f3fecec05aa6c64d8d3c5aab0206b73a2949c430c1c5d64111cd864736f6c63430008040033",
  "linkReferences": {},
  "deployedLinkReferences": {}
}